{
  "_format": "hh-sol-artifact-1",
  "contractName": "RideEscrow",
  "sourceName": "contracts/RideEscrow.sol",
  "abi": [
    {
      "inputs": [],
      "stateMutability": "nonpayable",
      "type": "constructor"
    },
    {
      "inputs": [],
      "name": "AccessControlBadConfirmation",
      "type": "error"
    },
    {
      "inputs": [
        {
          "internalType": "address",
          "name": "account",
          "type": "address"
        },
        {
          "internalType": "bytes32",
          "name": "neededRole",
          "type": "bytes32"
        }
      ],
      "name": "AccessControlUnauthorizedAccount",
      "type": "error"
    },
    {
      "inputs": [],
      "name": "ReentrancyGuardReentrantCall",
      "type": "error"
    },
    {
      "anonymous": false,
      "inputs": [
        {
          "indexed": true,
          "internalType": "uint256",
          "name": "rideId",
          "type": "uint256"
        },
        {
          "indexed": false,
          "internalType": "address",
          "name": "openedBy",
          "type": "address"
        }
      ],
      "name": "DisputeOpened",
      "type": "event"
    },
    {
      "anonymous": false,
      "inputs": [
        {
          "indexed": true,
          "internalType": "uint256",
          "name": "rideId",
          "type": "uint256"
        },
        {
          "indexed": true,
          "internalType": "address",
          "name": "driver",
          "type": "address"
        }
      ],
      "name": "RideAccepted",
      "type": "event"
    },
    {
      "anonymous": false,
      "inputs": [
        {
          "indexed": true,
          "internalType": "uint256",
          "name": "rideId",
          "type": "uint256"
        }
      ],
      "name": "RideCancelled",
      "type": "event"
    },
    {
      "anonymous": false,
      "inputs": [
        {
          "indexed": true,
          "internalType": "uint256",
          "name": "rideId",
          "type": "uint256"
        },
        {
          "indexed": false,
          "internalType": "uint256",
          "name": "finalFare",
          "type": "uint256"
        },
        {
          "indexed": false,
          "internalType": "uint256",
          "name": "driverPaid",
          "type": "uint256"
        },
        {
          "indexed": false,
          "internalType": "uint256",
          "name": "riderRefund",
          "type": "uint256"
        }
      ],
      "name": "RideCompleted",
      "type": "event"
    },
    {
      "anonymous": false,
      "inputs": [
        {
          "indexed": true,
          "internalType": "uint256",
          "name": "rideId",
          "type": "uint256"
        },
        {
          "indexed": true,
          "internalType": "address",
          "name": "rider",
          "type": "address"
        },
        {
          "indexed": false,
          "internalType": "uint256",
          "name": "maxFare",
          "type": "uint256"
        },
        {
          "indexed": false,
          "internalType": "uint256",
          "name": "expiry",
          "type": "uint256"
        },
        {
          "indexed": false,
          "internalType": "bytes32",
          "name": "commitHash",
          "type": "bytes32"
        }
      ],
      "name": "RideCreated",
      "type": "event"
    },
    {
      "anonymous": false,
      "inputs": [
        {
          "indexed": true,
          "internalType": "uint256",
          "name": "rideId",
          "type": "uint256"
        }
      ],
      "name": "RideStarted",
      "type": "event"
    },
    {
      "anonymous": false,
      "inputs": [
        {
          "indexed": true,
          "internalType": "bytes32",
          "name": "role",
          "type": "bytes32"
        },
        {
          "indexed": true,
          "internalType": "bytes32",
          "name": "previousAdminRole",
          "type": "bytes32"
        },
        {
          "indexed": true,
          "internalType": "bytes32",
          "name": "newAdminRole",
          "type": "bytes32"
        }
      ],
      "name": "RoleAdminChanged",
      "type": "event"
    },
    {
      "anonymous": false,
      "inputs": [
        {
          "indexed": true,
          "internalType": "bytes32",
          "name": "role",
          "type": "bytes32"
        },
        {
          "indexed": true,
          "internalType": "address",
          "name": "account",
          "type": "address"
        },
        {
          "indexed": true,
          "internalType": "address",
          "name": "sender",
          "type": "address"
        }
      ],
      "name": "RoleGranted",
      "type": "event"
    },
    {
      "anonymous": false,
      "inputs": [
        {
          "indexed": true,
          "internalType": "bytes32",
          "name": "role",
          "type": "bytes32"
        },
        {
          "indexed": true,
          "internalType": "address",
          "name": "account",
          "type": "address"
        },
        {
          "indexed": true,
          "internalType": "address",
          "name": "sender",
          "type": "address"
        }
      ],
      "name": "RoleRevoked",
      "type": "event"
    },
    {
      "inputs": [],
      "name": "ADMIN_ROLE",
      "outputs": [
        {
          "internalType": "bytes32",
          "name": "",
          "type": "bytes32"
        }
      ],
      "stateMutability": "view",
      "type": "function"
    },
    {
      "inputs": [],
      "name": "DEFAULT_ADMIN_ROLE",
      "outputs": [
        {
          "internalType": "bytes32",
          "name": "",
          "type": "bytes32"
        }
      ],
      "stateMutability": "view",
      "type": "function"
    },
    {
      "inputs": [
        {
          "internalType": "uint256",
          "name": "rideId",
          "type": "uint256"
        }
      ],
      "name": "acceptRide",
      "outputs": [],
      "stateMutability": "nonpayable",
      "type": "function"
    },
    {
      "inputs": [
        {
          "internalType": "uint256",
          "name": "rideId",
          "type": "uint256"
        }
      ],
      "name": "cancelRide",
      "outputs": [],
      "stateMutability": "nonpayable",
      "type": "function"
    },
    {
      "inputs": [
        {
          "internalType": "uint256",
          "name": "rideId",
          "type": "uint256"
        },
        {
          "internalType": "uint256",
          "name": "finalFare",
          "type": "uint256"
        }
      ],
      "name": "completeRide",
      "outputs": [],
      "stateMutability": "nonpayable",
      "type": "function"
    },
    {
      "inputs": [
        {
          "internalType": "bytes32",
          "name": "commitHash",
          "type": "bytes32"
        },
        {
          "internalType": "uint256",
          "name": "expiry",
          "type": "uint256"
        }
      ],
      "name": "createRide",
      "outputs": [],
      "stateMutability": "payable",
      "type": "function"
    },
    {
      "inputs": [
        {
          "internalType": "bytes32",
          "name": "role",
          "type": "bytes32"
        }
      ],
      "name": "getRoleAdmin",
      "outputs": [
        {
          "internalType": "bytes32",
          "name": "",
          "type": "bytes32"
        }
      ],
      "stateMutability": "view",
      "type": "function"
    },
    {
      "inputs": [
        {
          "internalType": "bytes32",
          "name": "role",
          "type": "bytes32"
        },
        {
          "internalType": "address",
          "name": "account",
          "type": "address"
        }
      ],
      "name": "grantRole",
      "outputs": [],
      "stateMutability": "nonpayable",
      "type": "function"
    },
    {
      "inputs": [
        {
          "internalType": "bytes32",
          "name": "role",
          "type": "bytes32"
        },
        {
          "internalType": "address",
          "name": "account",
          "type": "address"
        }
      ],
      "name": "hasRole",
      "outputs": [
        {
          "internalType": "bool",
          "name": "",
          "type": "bool"
        }
      ],
      "stateMutability": "view",
      "type": "function"
    },
    {
      "inputs": [
        {
          "internalType": "uint256",
          "name": "rideId",
          "type": "uint256"
        }
      ],
      "name": "openDispute",
      "outputs": [],
      "stateMutability": "nonpayable",
      "type": "function"
    },
    {
      "inputs": [
        {
          "internalType": "bytes32",
          "name": "role",
          "type": "bytes32"
        },
        {
          "internalType": "address",
          "name": "callerConfirmation",
          "type": "address"
        }
      ],
      "name": "renounceRole",
      "outputs": [],
      "stateMutability": "nonpayable",
      "type": "function"
    },
    {
      "inputs": [
        {
          "internalType": "bytes32",
          "name": "role",
          "type": "bytes32"
        },
        {
          "internalType": "address",
          "name": "account",
          "type": "address"
        }
      ],
      "name": "revokeRole",
      "outputs": [],
      "stateMutability": "nonpayable",
      "type": "function"
    },
    {
      "inputs": [
        {
          "internalType": "uint256",
          "name": "",
          "type": "uint256"
        }
      ],
      "name": "rides",
      "outputs": [
        {
          "internalType": "address payable",
          "name": "rider",
          "type": "address"
        },
        {
          "internalType": "address payable",
          "name": "driver",
          "type": "address"
        },
        {
          "internalType": "uint256",
          "name": "maxFare",
          "type": "uint256"
        },
        {
          "internalType": "uint256",
          "name": "finalFare",
          "type": "uint256"
        },
        {
          "internalType": "uint256",
          "name": "expiry",
          "type": "uint256"
        },
        {
          "internalType": "bytes32",
          "name": "commitHash",
          "type": "bytes32"
        },
        {
          "internalType": "enum RideEscrow.RideState",
          "name": "state",
          "type": "uint8"
        }
      ],
      "stateMutability": "view",
      "type": "function"
    },
    {
      "inputs": [
        {
          "internalType": "uint256",
          "name": "rideId",
          "type": "uint256"
        }
      ],
      "name": "startRide",
      "outputs": [],
      "stateMutability": "nonpayable",
      "type": "function"
    },
    {
      "inputs": [
        {
          "internalType": "bytes4",
          "name": "interfaceId",
          "type": "bytes4"
        }
      ],
      "name": "supportsInterface",
      "outputs": [
        {
          "internalType": "bool",
          "name": "",
          "type": "bool"
        }
      ],
      "stateMutability": "view",
      "type": "function"
    }
  ],
  "bytecode": "0x60806040523480156200001157600080fd5b5060016000819055506200002f6000801b336200006960201b60201c565b50620000627fa49807205ce4d355092ef5a8a18f56e8913cf4a201fbe287825b095693c21775336200006960201b60201c565b50620001df565b60006200007d83836200016c60201b60201c565b6200016157600180600085815260200190815260200160002060000160008473ffffffffffffffffffffffffffffffffffffffff1673ffffffffffffffffffffffffffffffffffffffff16815260200190815260200160002060006101000a81548160ff021916908315150217905550620000fd620001d760201b60201c565b73ffffffffffffffffffffffffffffffffffffffff168273ffffffffffffffffffffffffffffffffffffffff16847f2f8788117e7eff1d82e926ec794901d17c78024a50270940304540a733656f0d60405160405180910390a46001905062000166565b600090505b92915050565b60006001600084815260200190815260200160002060000160008373ffffffffffffffffffffffffffffffffffffffff1673ffffffffffffffffffffffffffffffffffffffff16815260200190815260200160002060009054906101000a900460ff16905092915050565b600033905090565b61220680620001ef6000396000f3fe6080604052600436106100e85760003560e01c806391d148541161008a578063c0599d2811610059578063c0599d28146102fd578063c51562cb14610326578063d547741f1461034f578063e9c14b1e14610378576100e8565b806391d14854146102505780639b9eb7e51461028d578063a217fddf146102a9578063a6f07b29146102d4576100e8565b80632f2ff15d116100c65780632f2ff15d1461019057806336568abe146101b95780635205f112146101e257806375b238fc14610225576100e8565b806301ffc9a7146100ed578063248a9ca31461012a57806327d00fb014610167575b600080fd5b3480156100f957600080fd5b50610114600480360381019061010f91906117bc565b6103a1565b6040516101219190611804565b60405180910390f35b34801561013657600080fd5b50610151600480360381019061014c9190611855565b61041b565b60405161015e9190611891565b60405180910390f35b34801561017357600080fd5b5061018e600480360381019061018991906118e2565b61043b565b005b34801561019c57600080fd5b506101b760048036038101906101b2919061196d565b610665565b005b3480156101c557600080fd5b506101e060048036038101906101db919061196d565b610687565b005b3480156101ee57600080fd5b50610209600480360381019061020491906118e2565b610702565b60405161021c9796959493929190611a54565b60405180910390f35b34801561023157600080fd5b5061023a610791565b6040516102479190611891565b60405180910390f35b34801561025c57600080fd5b506102776004803603810190610272919061196d565b6107b5565b6040516102849190611804565b60405180910390f35b6102a760048036038101906102a29190611ac3565b610820565b005b3480156102b557600080fd5b506102be610a98565b6040516102cb9190611891565b60405180910390f35b3480156102e057600080fd5b506102fb60048036038101906102f691906118e2565b610a9f565b005b34801561030957600080fd5b50610324600480360381019061031f9190611b03565b610d23565b005b34801561033257600080fd5b5061034d600480360381019061034891906118e2565b61106d565b005b34801561035b57600080fd5b506103766004803603810190610371919061196d565b611257565b005b34801561038457600080fd5b5061039f600480360381019061039a91906118e2565b611279565b005b60007f7965db0b000000000000000000000000000000000000000000000000000000007bffffffffffffffffffffffffffffffffffffffffffffffffffffffff1916827bffffffffffffffffffffffffffffffffffffffffffffffffffffffff19161480610414575061041382611454565b5b9050919050565b600060016000838152602001908152602001600020600101549050919050565b806002548110610480576040517f08c379a000000000000000000000000000000000000000000000000000000000815260040161047790611ba0565b60405180910390fd5b60006003600084815260200190815260200160002090508060000160009054906101000a900473ffffffffffffffffffffffffffffffffffffffff1673ffffffffffffffffffffffffffffffffffffffff163373ffffffffffffffffffffffffffffffffffffffff16148061054457508060010160009054906101000a900473ffffffffffffffffffffffffffffffffffffffff1673ffffffffffffffffffffffffffffffffffffffff163373ffffffffffffffffffffffffffffffffffffffff16145b610583576040517f08c379a000000000000000000000000000000000000000000000000000000000815260040161057a90611c0c565b60405180910390fd5b60026005811115610597576105966119dd565b5b8160060160009054906101000a900460ff1660058111156105bb576105ba6119dd565b5b146105fb576040517f08c379a00000000000000000000000000000000000000000000000000000000081526004016105f290611c78565b60405180910390fd5b60058160060160006101000a81548160ff02191690836005811115610623576106226119dd565b5b0217905550827f44f3c3ed15c708331582bc379d28659a58f183a563abe41aa4c8889db469f71c336040516106589190611ca7565b60405180910390a2505050565b61066e8261041b565b610677816114be565b61068183836114d2565b50505050565b61068f6115c3565b73ffffffffffffffffffffffffffffffffffffffff168173ffffffffffffffffffffffffffffffffffffffff16146106f3576040517f6697b23200000000000000000000000000000000000000000000000000000000815260040160405180910390fd5b6106fd82826115cb565b505050565b60036020528060005260406000206000915090508060000160009054906101000a900473ffffffffffffffffffffffffffffffffffffffff16908060010160009054906101000a900473ffffffffffffffffffffffffffffffffffffffff16908060020154908060030154908060040154908060050154908060060160009054906101000a900460ff16905087565b7fa49807205ce4d355092ef5a8a18f56e8913cf4a201fbe287825b095693c2177581565b60006001600084815260200190815260200160002060000160008373ffffffffffffffffffffffffffffffffffffffff1673ffffffffffffffffffffffffffffffffffffffff16815260200190815260200160002060009054906101000a900460ff16905092915050565b6108286116be565b6000341161086b576040517f08c379a000000000000000000000000000000000000000000000000000000000815260040161086290611d0e565b60405180910390fd5b4281116108ad576040517f08c379a00000000000000000000000000000000000000000000000000000000081526004016108a490611d7a565b60405180910390fd5b6000600260008154809291906108c290611dc9565b9190505590506040518060e001604052803373ffffffffffffffffffffffffffffffffffffffff168152602001600073ffffffffffffffffffffffffffffffffffffffff1681526020013481526020016000815260200183815260200184815260200160006005811115610939576109386119dd565b5b8152506003600083815260200190815260200160002060008201518160000160006101000a81548173ffffffffffffffffffffffffffffffffffffffff021916908373ffffffffffffffffffffffffffffffffffffffff16021790555060208201518160010160006101000a81548173ffffffffffffffffffffffffffffffffffffffff021916908373ffffffffffffffffffffffffffffffffffffffff16021790555060408201518160020155606082015181600301556080820151816004015560a0820151816005015560c08201518160060160006101000a81548160ff02191690836005811115610a3057610a2f6119dd565b5b02179055509050503373ffffffffffffffffffffffffffffffffffffffff16817f716039c92b7dc34a30a1a90b8b86e9bfd5d9cbcfb7fc070c8428dfd4ebd82e88348587604051610a8393929190611e11565b60405180910390a350610a94611704565b5050565b6000801b81565b610aa76116be565b806002548110610aec576040517f08c379a0000000000000000000000000000000000000000000000000000000008152600401610ae390611ba0565b60405180910390fd5b60006003600084815260200190815260200160002090508060000160009054906101000a900473ffffffffffffffffffffffffffffffffffffffff1673ffffffffffffffffffffffffffffffffffffffff163373ffffffffffffffffffffffffffffffffffffffff1614610b95576040517f08c379a0000000000000000000000000000000000000000000000000000000008152600401610b8c90611e94565b60405180910390fd5b60006005811115610ba957610ba86119dd565b5b8160060160009054906101000a900460ff166005811115610bcd57610bcc6119dd565b5b1480610c0e575060016005811115610be857610be76119dd565b5b8160060160009054906101000a900460ff166005811115610c0c57610c0b6119dd565b5b145b610c4d576040517f08c379a0000000000000000000000000000000000000000000000000000000008152600401610c4490611f00565b60405180910390fd5b60048160060160006101000a81548160ff02191690836005811115610c7557610c746119dd565b5b02179055508060000160009054906101000a900473ffffffffffffffffffffffffffffffffffffffff1673ffffffffffffffffffffffffffffffffffffffff166108fc82600201549081150290604051600060405180830381858888f19350505050158015610ce8573d6000803e3d6000fd5b50827f0c23eb44b06124e00526761c3c77095fc814bb72c9be3ac1e58f0bc2ebfe4f7e60405160405180910390a25050610d20611704565b50565b610d2b6116be565b816002548110610d70576040517f08c379a0000000000000000000000000000000000000000000000000000000008152600401610d6790611ba0565b60405180910390fd5b826002806005811115610d8657610d856119dd565b5b6003600084815260200190815260200160002060060160009054906101000a900460ff166005811115610dbc57610dbb6119dd565b5b14610dfc576040517f08c379a0000000000000000000000000000000000000000000000000000000008152600401610df390611f6c565b60405180910390fd5b60006003600087815260200190815260200160002090508060010160009054906101000a900473ffffffffffffffffffffffffffffffffffffffff1673ffffffffffffffffffffffffffffffffffffffff163373ffffffffffffffffffffffffffffffffffffffff1614610ea5576040517f08c379a0000000000000000000000000000000000000000000000000000000008152600401610e9c90611fd8565b60405180910390fd5b8060020154851115610eec576040517f08c379a0000000000000000000000000000000000000000000000000000000008152600401610ee390612044565b60405180910390fd5b84816003018190555060038160060160006101000a81548160ff02191690836005811115610f1d57610f1c6119dd565b5b02179055506000858260020154610f349190612064565b90506000861115610fab578160010160009054906101000a900473ffffffffffffffffffffffffffffffffffffffff1673ffffffffffffffffffffffffffffffffffffffff166108fc879081150290604051600060405180830381858888f19350505050158015610fa9573d6000803e3d6000fd5b505b6000811115611020578160000160009054906101000a900473ffffffffffffffffffffffffffffffffffffffff1673ffffffffffffffffffffffffffffffffffffffff166108fc829081150290604051600060405180830381858888f1935050505015801561101e573d6000803e3d6000fd5b505b867f917148d38d6353dfdee664fe2cb0d3343cf38fcb330f5715e7f1ce686985cfdf87888460405161105493929190612098565b60405180910390a25050505050611069611704565b5050565b8060025481106110b2576040517f08c379a00000000000000000000000000000000000000000000000000000000081526004016110a990611ba0565b60405180910390fd5b8160008060058111156110c8576110c76119dd565b5b6003600084815260200190815260200160002060060160009054906101000a900460ff1660058111156110fe576110fd6119dd565b5b1461113e576040517f08c379a000000000000000000000000000000000000000000000000000000000815260040161113590611f6c565b60405180910390fd5b6000600360008681526020019081526020016000209050806004015442111561119c576040517f08c379a00000000000000000000000000000000000000000000000000000000081526004016111939061211b565b60405180910390fd5b338160010160006101000a81548173ffffffffffffffffffffffffffffffffffffffff021916908373ffffffffffffffffffffffffffffffffffffffff16021790555060018160060160006101000a81548160ff02191690836005811115611207576112066119dd565b5b02179055503373ffffffffffffffffffffffffffffffffffffffff16857fcb890c33fd108e736800f548e422bb587b58384dea0bbc2849e4b904ce455bbc60405160405180910390a35050505050565b6112608261041b565b611269816114be565b61127383836115cb565b50505050565b8060025481106112be576040517f08c379a00000000000000000000000000000000000000000000000000000000081526004016112b590611ba0565b60405180910390fd5b8160018060058111156112d4576112d36119dd565b5b6003600084815260200190815260200160002060060160009054906101000a900460ff16600581111561130a576113096119dd565b5b1461134a576040517f08c379a000000000000000000000000000000000000000000000000000000000815260040161134190611f6c565b60405180910390fd5b60006003600086815260200190815260200160002090508060010160009054906101000a900473ffffffffffffffffffffffffffffffffffffffff1673ffffffffffffffffffffffffffffffffffffffff163373ffffffffffffffffffffffffffffffffffffffff16146113f3576040517f08c379a00000000000000000000000000000000000000000000000000000000081526004016113ea90612187565b60405180910390fd5b60028160060160006101000a81548160ff0219169083600581111561141b5761141a6119dd565b5b0217905550847f1caef5aba80487f3eb64526a934f8250dd2591d249cd4f14756041c0ff93607d60405160405180910390a25050505050565b60007f01ffc9a7000000000000000000000000000000000000000000000000000000007bffffffffffffffffffffffffffffffffffffffffffffffffffffffff1916827bffffffffffffffffffffffffffffffffffffffffffffffffffffffff1916149050919050565b6114cf816114ca6115c3565b61170e565b50565b60006114de83836107b5565b6115b857600180600085815260200190815260200160002060000160008473ffffffffffffffffffffffffffffffffffffffff1673ffffffffffffffffffffffffffffffffffffffff16815260200190815260200160002060006101000a81548160ff0219169083151502179055506115556115c3565b73ffffffffffffffffffffffffffffffffffffffff168273ffffffffffffffffffffffffffffffffffffffff16847f2f8788117e7eff1d82e926ec794901d17c78024a50270940304540a733656f0d60405160405180910390a4600190506115bd565b600090505b92915050565b600033905090565b60006115d783836107b5565b156116b35760006001600085815260200190815260200160002060000160008473ffffffffffffffffffffffffffffffffffffffff1673ffffffffffffffffffffffffffffffffffffffff16815260200190815260200160002060006101000a81548160ff0219169083151502179055506116506115c3565b73ffffffffffffffffffffffffffffffffffffffff168273ffffffffffffffffffffffffffffffffffffffff16847ff6391f5c32d9c69d2a47ea670b442974b53935d1edc7fd64eb21e047a839171b60405160405180910390a4600190506116b8565b600090505b92915050565b6002600054036116fa576040517f3ee5aeb500000000000000000000000000000000000000000000000000000000815260040160405180910390fd5b6002600081905550565b6001600081905550565b61171882826107b5565b61175b5780826040517fe2517d3f0000000000000000000000000000000000000000000000000000000081526004016117529291906121a7565b60405180910390fd5b5050565b600080fd5b60007fffffffff0000000000000000000000000000000000000000000000000000000082169050919050565b61179981611764565b81146117a457600080fd5b50565b6000813590506117b681611790565b92915050565b6000602082840312156117d2576117d161175f565b5b60006117e0848285016117a7565b91505092915050565b60008115159050919050565b6117fe816117e9565b82525050565b600060208201905061181960008301846117f5565b92915050565b6000819050919050565b6118328161181f565b811461183d57600080fd5b50565b60008135905061184f81611829565b92915050565b60006020828403121561186b5761186a61175f565b5b600061187984828501611840565b91505092915050565b61188b8161181f565b82525050565b60006020820190506118a66000830184611882565b92915050565b6000819050919050565b6118bf816118ac565b81146118ca57600080fd5b50565b6000813590506118dc816118b6565b92915050565b6000602082840312156118f8576118f761175f565b5b6000611906848285016118cd565b91505092915050565b600073ffffffffffffffffffffffffffffffffffffffff82169050919050565b600061193a8261190f565b9050919050565b61194a8161192f565b811461195557600080fd5b50565b60008135905061196781611941565b92915050565b600080604083850312156119845761198361175f565b5b600061199285828601611840565b92505060206119a385828601611958565b9150509250929050565b60006119b88261190f565b9050919050565b6119c8816119ad565b82525050565b6119d7816118ac565b82525050565b7f4e487b7100000000000000000000000000000000000000000000000000000000600052602160045260246000fd5b60068110611a1d57611a1c6119dd565b5b50565b6000819050611a2e82611a0c565b919050565b6000611a3e82611a20565b9050919050565b611a4e81611a33565b82525050565b600060e082019050611a69600083018a6119bf565b611a7660208301896119bf565b611a8360408301886119ce565b611a9060608301876119ce565b611a9d60808301866119ce565b611aaa60a0830185611882565b611ab760c0830184611a45565b98975050505050505050565b60008060408385031215611ada57611ad961175f565b5b6000611ae885828601611840565b9250506020611af9858286016118cd565b9150509250929050565b60008060408385031215611b1a57611b1961175f565b5b6000611b28858286016118cd565b9250506020611b39858286016118cd565b9150509250929050565b600082825260208201905092915050565b7f5269646520646f6573206e6f7420657869737400000000000000000000000000600082015250565b6000611b8a601383611b43565b9150611b9582611b54565b602082019050919050565b60006020820190508181036000830152611bb981611b7d565b9050919050565b7f4e6f7420617574686f72697a6564000000000000000000000000000000000000600082015250565b6000611bf6600e83611b43565b9150611c0182611bc0565b602082019050919050565b60006020820190508181036000830152611c2581611be9565b9050919050565b7f44697370757465206e6f7420616c6c6f776564206e6f77000000000000000000600082015250565b6000611c62601783611b43565b9150611c6d82611c2c565b602082019050919050565b60006020820190508181036000830152611c9181611c55565b9050919050565b611ca18161192f565b82525050565b6000602082019050611cbc6000830184611c98565b92915050565b7f457363726f77206d757374206265203e20300000000000000000000000000000600082015250565b6000611cf8601283611b43565b9150611d0382611cc2565b602082019050919050565b60006020820190508181036000830152611d2781611ceb565b9050919050565b7f496e76616c696420657870697279000000000000000000000000000000000000600082015250565b6000611d64600e83611b43565b9150611d6f82611d2e565b602082019050919050565b60006020820190508181036000830152611d9381611d57565b9050919050565b7f4e487b7100000000000000000000000000000000000000000000000000000000600052601160045260246000fd5b6000611dd4826118ac565b91507fffffffffffffffffffffffffffffffffffffffffffffffffffffffffffffffff8203611e0657611e05611d9a565b5b600182019050919050565b6000606082019050611e2660008301866119ce565b611e3360208301856119ce565b611e406040830184611882565b949350505050565b7f4f6e6c792072696465722063616e2063616e63656c0000000000000000000000600082015250565b6000611e7e601583611b43565b9150611e8982611e48565b602082019050919050565b60006020820190508181036000830152611ead81611e71565b9050919050565b7f43616e6e6f742063616e63656c206e6f77000000000000000000000000000000600082015250565b6000611eea601183611b43565b9150611ef582611eb4565b602082019050919050565b60006020820190508181036000830152611f1981611edd565b9050919050565b7f496e76616c696420726964652073746174650000000000000000000000000000600082015250565b6000611f56601283611b43565b9150611f6182611f20565b602082019050919050565b60006020820190508181036000830152611f8581611f49565b9050919050565b7f4f6e6c79206472697665722063616e20636f6d706c6574650000000000000000600082015250565b6000611fc2601883611b43565b9150611fcd82611f8c565b602082019050919050565b60006020820190508181036000830152611ff181611fb5565b9050919050565b7f46617265206578636565647320657363726f7700000000000000000000000000600082015250565b600061202e601383611b43565b915061203982611ff8565b602082019050919050565b6000602082019050818103600083015261205d81612021565b9050919050565b600061206f826118ac565b915061207a836118ac565b925082820390508181111561209257612091611d9a565b5b92915050565b60006060820190506120ad60008301866119ce565b6120ba60208301856119ce565b6120c760408301846119ce565b949350505050565b7f5269646520657870697265640000000000000000000000000000000000000000600082015250565b6000612105600c83611b43565b9150612110826120cf565b602082019050919050565b60006020820190508181036000830152612134816120f8565b9050919050565b7f4f6e6c79206472697665722063616e2073746172740000000000000000000000600082015250565b6000612171601583611b43565b915061217c8261213b565b602082019050919050565b600060208201905081810360008301526121a081612164565b9050919050565b60006040820190506121bc6000830185611c98565b6121c96020830184611882565b939250505056fea2646970667358221220c6c35395cd4460670f716ca52e706f517a2b935a3e0ea898e341bd8715ef25f364736f6c63430008140033",
  "linkReferences": {},
  "deployedLinkReferences": {}
}