{
  "_format": "hh-sol-artifact-1",
  "contractName": "SharedRideEscrow",
  "sourceName": "contracts/SharedRideEscrow.sol",
  "abi": [
    {
      "inputs": [],
      "name": "ReentrancyGuardReentrantCall",
      "type": "error"
    },
    {
      "anonymous": false,
      "inputs": [
        {
          "indexed": true,
          "internalType": "uint256",
          "name": "tripId",
          "type": "uint256"
        },
        {
          "indexed": true,
          "internalType": "address",
          "name": "rider",
          "type": "address"
        },
        {
          "indexed": false,
          "internalType": "uint256",
          "name": "amount",
          "type": "uint256"
        }
      ],
      "name": "RiderJoined",
      "type": "event"
    },
    {
      "anonymous": false,
      "inputs": [
        {
          "indexed": true,
          "internalType": "uint256",
          "name": "tripId",
          "type": "uint256"
        },
        {
          "indexed": true,
          "internalType": "address",
          "name": "rider",
          "type": "address"
        },
        {
          "indexed": false,
          "internalType": "uint256",
          "name": "refund",
          "type": "uint256"
        }
      ],
      "name": "RiderLeft",
      "type": "event"
    },
    {
      "anonymous": false,
      "inputs": [
        {
          "indexed": true,
          "internalType": "uint256",
          "name": "tripId",
          "type": "uint256"
        },
        {
          "indexed": false,
          "internalType": "uint256",
          "name": "finalFareTotal",
          "type": "uint256"
        },
        {
          "indexed": false,
          "internalType": "uint256",
          "name": "perRiderFare",
          "type": "uint256"
        }
      ],
      "name": "TripCompleted",
      "type": "event"
    },
    {
      "anonymous": false,
      "inputs": [
        {
          "indexed": true,
          "internalType": "uint256",
          "name": "tripId",
          "type": "uint256"
        },
        {
          "indexed": true,
          "internalType": "address",
          "name": "driver",
          "type": "address"
        },
        {
          "indexed": false,
          "internalType": "string",
          "name": "destination",
          "type": "string"
        },
        {
          "indexed": false,
          "internalType": "uint256",
          "name": "maxSeats",
          "type": "uint256"
        }
      ],
      "name": "TripCreated",
      "type": "event"
    },
    {
      "anonymous": false,
      "inputs": [
        {
          "indexed": true,
          "internalType": "uint256",
          "name": "tripId",
          "type": "uint256"
        }
      ],
      "name": "TripStarted",
      "type": "event"
    },
    {
      "inputs": [
        {
          "internalType": "uint256",
          "name": "tripId",
          "type": "uint256"
        },
        {
          "internalType": "uint256",
          "name": "finalFareTotal",
          "type": "uint256"
        }
      ],
      "name": "completeTrip",
      "outputs": [],
      "stateMutability": "nonpayable",
      "type": "function"
    },
    {
      "inputs": [
        {
          "internalType": "string",
          "name": "destination",
          "type": "string"
        },
        {
          "internalType": "uint256",
          "name": "maxSeats",
          "type": "uint256"
        }
      ],
      "name": "createTrip",
      "outputs": [
        {
          "internalType": "uint256",
          "name": "tripId",
          "type": "uint256"
        }
      ],
      "stateMutability": "nonpayable",
      "type": "function"
    },
    {
      "inputs": [
        {
          "internalType": "uint256",
          "name": "",
          "type": "uint256"
        },
        {
          "internalType": "address",
          "name": "",
          "type": "address"
        }
      ],
      "name": "deposits",
      "outputs": [
        {
          "internalType": "uint256",
          "name": "",
          "type": "uint256"
        }
      ],
      "stateMutability": "view",
      "type": "function"
    },
    {
      "inputs": [
        {
          "internalType": "uint256",
          "name": "tripId",
          "type": "uint256"
        }
      ],
      "name": "getRiders",
      "outputs": [
        {
          "internalType": "address[]",
          "name": "",
          "type": "address[]"
        }
      ],
      "stateMutability": "view",
      "type": "function"
    },
    {
      "inputs": [],
      "name": "getTripCount",
      "outputs": [
        {
          "internalType": "uint256",
          "name": "",
          "type": "uint256"
        }
      ],
      "stateMutability": "view",
      "type": "function"
    },
    {
      "inputs": [
        {
          "internalType": "uint256",
          "name": "tripId",
          "type": "uint256"
        }
      ],
      "name": "getTripInfo",
      "outputs": [
        {
          "internalType": "address",
          "name": "driver",
          "type": "address"
        },
        {
          "internalType": "string",
          "name": "destination",
          "type": "string"
        },
        {
          "internalType": "uint256",
          "name": "riderCount",
          "type": "uint256"
        },
        {
          "internalType": "uint256",
          "name": "maxSeats",
          "type": "uint256"
        },
        {
          "internalType": "uint256",
          "name": "totalEscrow",
          "type": "uint256"
        },
        {
          "internalType": "uint8",
          "name": "state",
          "type": "uint8"
        }
      ],
      "stateMutability": "view",
      "type": "function"
    },
    {
      "inputs": [
        {
          "internalType": "uint256",
          "name": "",
          "type": "uint256"
        },
        {
          "internalType": "address",
          "name": "",
          "type": "address"
        }
      ],
      "name": "isRider",
      "outputs": [
        {
          "internalType": "bool",
          "name": "",
          "type": "bool"
        }
      ],
      "stateMutability": "view",
      "type": "function"
    },
    {
      "inputs": [
        {
          "internalType": "uint256",
          "name": "tripId",
          "type": "uint256"
        }
      ],
      "name": "joinTrip",
      "outputs": [],
      "stateMutability": "payable",
      "type": "function"
    },
    {
      "inputs": [
        {
          "internalType": "uint256",
          "name": "tripId",
          "type": "uint256"
        }
      ],
      "name": "leaveTrip",
      "outputs": [],
      "stateMutability": "nonpayable",
      "type": "function"
    },
    {
      "inputs": [
        {
          "internalType": "uint256",
          "name": "tripId",
          "type": "uint256"
        }
      ],
      "name": "startTrip",
      "outputs": [],
      "stateMutability": "nonpayable",
      "type": "function"
    },
    {
      "inputs": [
        {
          "internalType": "uint256",
          "name": "",
          "type": "uint256"
        }
      ],
      "name": "trips",
      "outputs": [
        {
          "internalType": "address payable",
          "name": "driver",
          "type": "address"
        },
        {
          "internalType": "string",
          "name": "destination",
          "type": "string"
        },
        {
          "internalType": "uint256",
          "name": "maxSeats",
          "type": "uint256"
        },
        {
          "internalType": "uint256",
          "name": "totalEscrow",
          "type": "uint256"
        },
        {
          "internalType": "uint256",
          "name": "finalFareTotal",
          "type": "uint256"
        },
        {
          "internalType": "enum SharedRideEscrow.TripState",
          "name": "state",
          "type": "uint8"
        }
      ],
      "stateMutability": "view",
      "type": "function"
    }
  ],
  "bytecode": "0x608060405234801561001057600080fd5b506001600081905550612bd4806100286000396000f3fe60806040526004361061009c5760003560e01c806353a58de11161006457806353a58de11461019d5780635a7ce594146101da578063b2c9e75314610205578063ce55433214610247578063d051e36014610270578063f6824a7c146102995761009c565b806313c3ea33146100a1578063221fe35d146100bd5780632ca121a7146100fa5780633dde315e1461013757806350abbe5014610160575b600080fd5b6100bb60048036038101906100b69190611ad6565b6102db565b005b3480156100c957600080fd5b506100e460048036038101906100df9190611b61565b610734565b6040516100f19190611bbc565b60405180910390f35b34801561010657600080fd5b50610121600480360381019061011c9190611c3c565b610763565b60405161012e9190611cab565b60405180910390f35b34801561014357600080fd5b5061015e60048036038101906101599190611ad6565b6109ef565b005b34801561016c57600080fd5b5061018760048036038101906101829190611ad6565b610c14565b6040516101949190611d84565b60405180910390f35b3480156101a957600080fd5b506101c460048036038101906101bf9190611b61565b610cfe565b6040516101d19190611cab565b60405180910390f35b3480156101e657600080fd5b506101ef610d23565b6040516101fc9190611cab565b60405180910390f35b34801561021157600080fd5b5061022c60048036038101906102279190611ad6565b610d2d565b60405161023e96959493929190611e61565b60405180910390f35b34801561025357600080fd5b5061026e60048036038101906102699190611ec9565b610e95565b005b34801561027c57600080fd5b5061029760048036038101906102929190611ad6565b611371565b005b3480156102a557600080fd5b506102c060048036038101906102bb9190611ad6565b6118ae565b6040516102d296959493929190611fa1565b60405180910390f35b6102e361199f565b806001548110610328576040517f08c379a000000000000000000000000000000000000000000000000000000000815260040161031f90612055565b60405180910390fd5b81600080600381111561033e5761033d611f2a565b5b6002600084815260200190815260200160002060060160009054906101000a900460ff16600381111561037457610373611f2a565b5b146103b4576040517f08c379a00000000000000000000000000000000000000000000000000000000081526004016103ab906120c1565b60405180910390fd5b60006002600086815260200190815260200160002090508060000160009054906101000a900473ffffffffffffffffffffffffffffffffffffffff1673ffffffffffffffffffffffffffffffffffffffff163373ffffffffffffffffffffffffffffffffffffffff160361045d576040517f08c379a00000000000000000000000000000000000000000000000000000000081526004016104549061212d565b60405180910390fd5b6004600086815260200190815260200160002060003373ffffffffffffffffffffffffffffffffffffffff1673ffffffffffffffffffffffffffffffffffffffff16815260200190815260200160002060009054906101000a900460ff16156104fb576040517f08c379a00000000000000000000000000000000000000000000000000000000081526004016104f290612199565b60405180910390fd5b6000341161053e576040517f08c379a000000000000000000000000000000000000000000000000000000000815260040161053590612205565b60405180910390fd5b6000816003015414610598578060030154816002018054905010610597576040517f08c379a000000000000000000000000000000000000000000000000000000000815260040161058e90612271565b60405180910390fd5b5b60016004600087815260200190815260200160002060003373ffffffffffffffffffffffffffffffffffffffff1673ffffffffffffffffffffffffffffffffffffffff16815260200190815260200160002060006101000a81548160ff021916908315150217905550346003600087815260200190815260200160002060003373ffffffffffffffffffffffffffffffffffffffff1673ffffffffffffffffffffffffffffffffffffffff1681526020019081526020016000208190555080600201339080600181540180825580915050600190039060005260206000200160009091909190916101000a81548173ffffffffffffffffffffffffffffffffffffffff021916908373ffffffffffffffffffffffffffffffffffffffff160217905550348160040160008282546106cf91906122c0565b925050819055503373ffffffffffffffffffffffffffffffffffffffff16857f816f5d6936291966a312aa04e4ac21ba3e72548d7c797f6a5879c1221b1114633460405161071d9190611cab565b60405180910390a3505050506107316119e5565b50565b60046020528160005260406000206020528060005260406000206000915091509054906101000a900460ff1681565b600080821480610774575060028210155b6107b3576040517f08c379a00000000000000000000000000000000000000000000000000000000081526004016107aa90612340565b60405180910390fd5b600160008154809291906107c690612360565b9190505590506040518060e001604052803373ffffffffffffffffffffffffffffffffffffffff16815260200185858080601f016020809104026020016040519081016040528093929190818152602001838380828437600081840152601f19601f820116905080830192505050505050508152602001600067ffffffffffffffff811115610858576108576123a8565b5b6040519080825280602002602001820160405280156108865781602001602082028036833780820191505090505b5081526020018381526020016000815260200160008152602001600060038111156108b4576108b3611f2a565b5b8152506002600083815260200190815260200160002060008201518160000160006101000a81548173ffffffffffffffffffffffffffffffffffffffff021916908373ffffffffffffffffffffffffffffffffffffffff160217905550602082015181600101908161092691906125e3565b5060408201518160020190805190602001906109439291906119ef565b50606082015181600301556080820151816004015560a0820151816005015560c08201518160060160006101000a81548160ff0219169083600381111561098d5761098c611f2a565b5b02179055509050503373ffffffffffffffffffffffffffffffffffffffff16817fb97d60f4efa6efead896cfc0db2bfdfe57133218c9c3df8855db7c98301b30388686866040516109e0939291906126f1565b60405180910390a39392505050565b806001548110610a34576040517f08c379a0000000000000000000000000000000000000000000000000000000008152600401610a2b90612055565b60405180910390fd5b816000806003811115610a4a57610a49611f2a565b5b6002600084815260200190815260200160002060060160009054906101000a900460ff166003811115610a8057610a7f611f2a565b5b14610ac0576040517f08c379a0000000000000000000000000000000000000000000000000000000008152600401610ab7906120c1565b60405180910390fd5b60006002600086815260200190815260200160002090508060000160009054906101000a900473ffffffffffffffffffffffffffffffffffffffff1673ffffffffffffffffffffffffffffffffffffffff163373ffffffffffffffffffffffffffffffffffffffff1614610b69576040517f08c379a0000000000000000000000000000000000000000000000000000000008152600401610b609061276f565b60405180910390fd5b6000816002018054905011610bb3576040517f08c379a0000000000000000000000000000000000000000000000000000000008152600401610baa906127db565b60405180910390fd5b60018160060160006101000a81548160ff02191690836003811115610bdb57610bda611f2a565b5b0217905550847f133a4e7d2aba020e555f7901bea48e6e65820d1a54f64cb39bc167d5f38a7ead60405160405180910390a25050505050565b6060816001548110610c5b576040517f08c379a0000000000000000000000000000000000000000000000000000000008152600401610c5290612055565b60405180910390fd5b60026000848152602001908152602001600020600201805480602002602001604051908101604052809291908181526020018280548015610cf157602002820191906000526020600020905b8160009054906101000a900473ffffffffffffffffffffffffffffffffffffffff1673ffffffffffffffffffffffffffffffffffffffff1681526020019060010190808311610ca7575b5050505050915050919050565b6003602052816000526040600020602052806000526040600020600091509150505481565b6000600154905090565b60006060600080600080866001548110610d7c576040517f08c379a0000000000000000000000000000000000000000000000000000000008152600401610d7390612055565b60405180910390fd5b6000600260008a815260200190815260200160002090508060000160009054906101000a900473ffffffffffffffffffffffffffffffffffffffff16816001018260020180549050836003015484600401548560060160009054906101000a900460ff166003811115610df257610df1611f2a565b5b848054610dfe90612406565b80601f0160208091040260200160405190810160405280929190818152602001828054610e2a90612406565b8015610e775780601f10610e4c57610100808354040283529160200191610e77565b820191906000526020600020905b815481529060010190602001808311610e5a57829003601f168201915b50505050509450975097509750975097509750505091939550919395565b610e9d61199f565b816001548110610ee2576040517f08c379a0000000000000000000000000000000000000000000000000000000008152600401610ed990612055565b60405180910390fd5b826001806003811115610ef857610ef7611f2a565b5b6002600084815260200190815260200160002060060160009054906101000a900460ff166003811115610f2e57610f2d611f2a565b5b14610f6e576040517f08c379a0000000000000000000000000000000000000000000000000000000008152600401610f65906120c1565b60405180910390fd5b60006002600087815260200190815260200160002090508060000160009054906101000a900473ffffffffffffffffffffffffffffffffffffffff1673ffffffffffffffffffffffffffffffffffffffff163373ffffffffffffffffffffffffffffffffffffffff1614611017576040517f08c379a000000000000000000000000000000000000000000000000000000000815260040161100e90612847565b60405180910390fd5b806004015485111561105e576040517f08c379a0000000000000000000000000000000000000000000000000000000008152600401611055906128b3565b60405180910390fd5b60008160020180549050116110a8576040517f08c379a000000000000000000000000000000000000000000000000000000000815260040161109f9061291f565b60405180910390fd5b600081600201805490509050600081876110c2919061296e565b905086836005018190555060028360060160006101000a81548160ff021916908360038111156110f5576110f4611f2a565b5b0217905550600087111561116f578260000160009054906101000a900473ffffffffffffffffffffffffffffffffffffffff1673ffffffffffffffffffffffffffffffffffffffff166108fc889081150290604051600060405180830381858888f1935050505015801561116d573d6000803e3d6000fd5b505b60005b828110156113245760008460020182815481106111925761119161299f565b5b9060005260206000200160009054906101000a900473ffffffffffffffffffffffffffffffffffffffff1690506000600360008c815260200190815260200160002060008373ffffffffffffffffffffffffffffffffffffffff1673ffffffffffffffffffffffffffffffffffffffff16815260200190815260200160002054905083811015611257576040517f08c379a000000000000000000000000000000000000000000000000000000000815260040161124e90612a1a565b60405180910390fd5b600084826112659190612a3a565b90506000600360008e815260200190815260200160002060008573ffffffffffffffffffffffffffffffffffffffff1673ffffffffffffffffffffffffffffffffffffffff16815260200190815260200160002081905550600081111561130e578273ffffffffffffffffffffffffffffffffffffffff166108fc829081150290604051600060405180830381858888f1935050505015801561130c573d6000803e3d6000fd5b505b505050808061131c90612360565b915050611172565b50877f688c3c6c72eb55cff11d7d9b1212220db48bbdd6d6d008465d77e037827267218883604051611357929190612a6e565b60405180910390a250505050505061136d6119e5565b5050565b61137961199f565b8060015481106113be576040517f08c379a00000000000000000000000000000000000000000000000000000000081526004016113b590612055565b60405180910390fd5b8160008060038111156113d4576113d3611f2a565b5b6002600084815260200190815260200160002060060160009054906101000a900460ff16600381111561140a57611409611f2a565b5b1461144a576040517f08c379a0000000000000000000000000000000000000000000000000000000008152600401611441906120c1565b60405180910390fd5b6004600085815260200190815260200160002060003373ffffffffffffffffffffffffffffffffffffffff1673ffffffffffffffffffffffffffffffffffffffff16815260200190815260200160002060009054906101000a900460ff166114e7576040517f08c379a00000000000000000000000000000000000000000000000000000000081526004016114de90612ae3565b60405180910390fd5b600060026000868152602001908152602001600020905060006003600087815260200190815260200160002060003373ffffffffffffffffffffffffffffffffffffffff1673ffffffffffffffffffffffffffffffffffffffff16815260200190815260200160002054905060008111611596576040517f08c379a000000000000000000000000000000000000000000000000000000000815260040161158d90612b4f565b60405180910390fd5b60006004600088815260200190815260200160002060003373ffffffffffffffffffffffffffffffffffffffff1673ffffffffffffffffffffffffffffffffffffffff16815260200190815260200160002060006101000a81548160ff02191690831515021790555060006003600088815260200190815260200160002060003373ffffffffffffffffffffffffffffffffffffffff1673ffffffffffffffffffffffffffffffffffffffff16815260200190815260200160002081905550808260040160008282546116699190612a3a565b9250508190555060008260020180549050905060005b81811015611806573373ffffffffffffffffffffffffffffffffffffffff168460020182815481106116b4576116b361299f565b5b9060005260206000200160009054906101000a900473ffffffffffffffffffffffffffffffffffffffff1673ffffffffffffffffffffffffffffffffffffffff16036117f3578360020160018361170b9190612a3a565b8154811061171c5761171b61299f565b5b9060005260206000200160009054906101000a900473ffffffffffffffffffffffffffffffffffffffff1684600201828154811061175d5761175c61299f565b5b9060005260206000200160006101000a81548173ffffffffffffffffffffffffffffffffffffffff021916908373ffffffffffffffffffffffffffffffffffffffff160217905550836002018054806117b9576117b8612b6f565b5b6001900381819060005260206000200160006101000a81549073ffffffffffffffffffffffffffffffffffffffff02191690559055611806565b80806117fe90612360565b91505061167f565b503373ffffffffffffffffffffffffffffffffffffffff166108fc839081150290604051600060405180830381858888f1935050505015801561184d573d6000803e3d6000fd5b503373ffffffffffffffffffffffffffffffffffffffff16877fe56b5c820aa91027810b9aef107d7338f1d598af66187f7a7236f0df0659b294846040516118959190611cab565b60405180910390a35050505050506118ab6119e5565b50565b60026020528060005260406000206000915090508060000160009054906101000a900473ffffffffffffffffffffffffffffffffffffffff16908060010180546118f790612406565b80601f016020809104026020016040519081016040528092919081815260200182805461192390612406565b80156119705780601f1061194557610100808354040283529160200191611970565b820191906000526020600020905b81548152906001019060200180831161195357829003601f168201915b5050505050908060030154908060040154908060050154908060060160009054906101000a900460ff16905086565b6002600054036119db576040517f3ee5aeb500000000000000000000000000000000000000000000000000000000815260040160405180910390fd5b6002600081905550565b6001600081905550565b828054828255906000526020600020908101928215611a68579160200282015b82811115611a675782518260006101000a81548173ffffffffffffffffffffffffffffffffffffffff021916908373ffffffffffffffffffffffffffffffffffffffff16021790555091602001919060010190611a0f565b5b509050611a759190611a79565b5090565b5b80821115611a92576000816000905550600101611a7a565b5090565b600080fd5b600080fd5b6000819050919050565b611ab381611aa0565b8114611abe57600080fd5b50565b600081359050611ad081611aaa565b92915050565b600060208284031215611aec57611aeb611a96565b5b6000611afa84828501611ac1565b91505092915050565b600073ffffffffffffffffffffffffffffffffffffffff82169050919050565b6000611b2e82611b03565b9050919050565b611b3e81611b23565b8114611b4957600080fd5b50565b600081359050611b5b81611b35565b92915050565b60008060408385031215611b7857611b77611a96565b5b6000611b8685828601611ac1565b9250506020611b9785828601611b4c565b9150509250929050565b60008115159050919050565b611bb681611ba1565b82525050565b6000602082019050611bd16000830184611bad565b92915050565b600080fd5b600080fd5b600080fd5b60008083601f840112611bfc57611bfb611bd7565b5b8235905067ffffffffffffffff811115611c1957611c18611bdc565b5b602083019150836001820283011115611c3557611c34611be1565b5b9250929050565b600080600060408486031215611c5557611c54611a96565b5b600084013567ffffffffffffffff811115611c7357611c72611a9b565b5b611c7f86828701611be6565b93509350506020611c9286828701611ac1565b9150509250925092565b611ca581611aa0565b82525050565b6000602082019050611cc06000830184611c9c565b92915050565b600081519050919050565b600082825260208201905092915050565b6000819050602082019050919050565b611cfb81611b23565b82525050565b6000611d0d8383611cf2565b60208301905092915050565b6000602082019050919050565b6000611d3182611cc6565b611d3b8185611cd1565b9350611d4683611ce2565b8060005b83811015611d77578151611d5e8882611d01565b9750611d6983611d19565b925050600181019050611d4a565b5085935050505092915050565b60006020820190508181036000830152611d9e8184611d26565b905092915050565b611daf81611b23565b82525050565b600081519050919050565b600082825260208201905092915050565b60005b83811015611def578082015181840152602081019050611dd4565b60008484015250505050565b6000601f19601f8301169050919050565b6000611e1782611db5565b611e218185611dc0565b9350611e31818560208601611dd1565b611e3a81611dfb565b840191505092915050565b600060ff82169050919050565b611e5b81611e45565b82525050565b600060c082019050611e766000830189611da6565b8181036020830152611e888188611e0c565b9050611e976040830187611c9c565b611ea46060830186611c9c565b611eb16080830185611c9c565b611ebe60a0830184611e52565b979650505050505050565b60008060408385031215611ee057611edf611a96565b5b6000611eee85828601611ac1565b9250506020611eff85828601611ac1565b9150509250929050565b6000611f1482611b03565b9050919050565b611f2481611f09565b82525050565b7f4e487b7100000000000000000000000000000000000000000000000000000000600052602160045260246000fd5b60048110611f6a57611f69611f2a565b5b50565b6000819050611f7b82611f59565b919050565b6000611f8b82611f6d565b9050919050565b611f9b81611f80565b82525050565b600060c082019050611fb66000830189611f1b565b8181036020830152611fc88188611e0c565b9050611fd76040830187611c9c565b611fe46060830186611c9c565b611ff16080830185611c9c565b611ffe60a0830184611f92565b979650505050505050565b7f5472697020646f6573206e6f7420657869737400000000000000000000000000600082015250565b600061203f601383611dc0565b915061204a82612009565b602082019050919050565b6000602082019050818103600083015261206e81612032565b9050919050565b7f496e76616c696420747269702073746174650000000000000000000000000000600082015250565b60006120ab601283611dc0565b91506120b682612075565b602082019050919050565b600060208201905081810360008301526120da8161209e565b9050919050565b7f4472697665722063616e6e6f74206a6f696e2061732072696465720000000000600082015250565b6000612117601b83611dc0565b9150612122826120e1565b602082019050919050565b600060208201905081810360008301526121468161210a565b9050919050565b7f416c7265616479206a6f696e6564000000000000000000000000000000000000600082015250565b6000612183600e83611dc0565b915061218e8261214d565b602082019050919050565b600060208201905081810360008301526121b281612176565b9050919050565b7f4465706f736974206d757374206265203e203000000000000000000000000000600082015250565b60006121ef601383611dc0565b91506121fa826121b9565b602082019050919050565b6000602082019050818103600083015261221e816121e2565b9050919050565b7f547269702069732066756c6c0000000000000000000000000000000000000000600082015250565b600061225b600c83611dc0565b915061226682612225565b602082019050919050565b6000602082019050818103600083015261228a8161224e565b9050919050565b7f4e487b7100000000000000000000000000000000000000000000000000000000600052601160045260246000fd5b60006122cb82611aa0565b91506122d683611aa0565b92508282019050808211156122ee576122ed612291565b5b92915050565b7f6d61785365617473206d7573742062652030206f72203e3d3200000000000000600082015250565b600061232a601983611dc0565b9150612335826122f4565b602082019050919050565b600060208201905081810360008301526123598161231d565b9050919050565b600061236b82611aa0565b91507fffffffffffffffffffffffffffffffffffffffffffffffffffffffffffffffff820361239d5761239c612291565b5b600182019050919050565b7f4e487b7100000000000000000000000000000000000000000000000000000000600052604160045260246000fd5b7f4e487b7100000000000000000000000000000000000000000000000000000000600052602260045260246000fd5b6000600282049050600182168061241e57607f821691505b602082108103612431576124306123d7565b5b50919050565b60008190508160005260206000209050919050565b60006020601f8301049050919050565b600082821b905092915050565b6000600883026124997fffffffffffffffffffffffffffffffffffffffffffffffffffffffffffffffff8261245c565b6124a3868361245c565b95508019841693508086168417925050509392505050565b6000819050919050565b60006124e06124db6124d684611aa0565b6124bb565b611aa0565b9050919050565b6000819050919050565b6124fa836124c5565b61250e612506826124e7565b848454612469565b825550505050565b600090565b612523612516565b61252e8184846124f1565b505050565b5b818110156125525761254760008261251b565b600181019050612534565b5050565b601f8211156125975761256881612437565b6125718461244c565b81016020851015612580578190505b61259461258c8561244c565b830182612533565b50505b505050565b600082821c905092915050565b60006125ba6000198460080261259c565b1980831691505092915050565b60006125d383836125a9565b9150826002028217905092915050565b6125ec82611db5565b67ffffffffffffffff811115612605576126046123a8565b5b61260f8254612406565b61261a828285612556565b600060209050601f83116001811461264d576000841561263b578287015190505b61264585826125c7565b8655506126ad565b601f19841661265b86612437565b60005b828110156126835784890151825560018201915060208501945060208101905061265e565b868310156126a0578489015161269c601f8916826125a9565b8355505b6001600288020188555050505b505050505050565b82818337600083830152505050565b60006126d08385611dc0565b93506126dd8385846126b5565b6126e683611dfb565b840190509392505050565b6000604082019050818103600083015261270c8185876126c4565b905061271b6020830184611c9c565b949350505050565b7f4f6e6c79206472697665722063616e2073746172740000000000000000000000600082015250565b6000612759601583611dc0565b915061276482612723565b602082019050919050565b600060208201905081810360008301526127888161274c565b9050919050565b7f4e6f20726964657273206a6f696e656400000000000000000000000000000000600082015250565b60006127c5601083611dc0565b91506127d08261278f565b602082019050919050565b600060208201905081810360008301526127f4816127b8565b9050919050565b7f4f6e6c79206472697665722063616e20636f6d706c6574650000000000000000600082015250565b6000612831601883611dc0565b915061283c826127fb565b602082019050919050565b6000602082019050818103600083015261286081612824565b9050919050565b7f46617265206578636565647320657363726f7700000000000000000000000000600082015250565b600061289d601383611dc0565b91506128a882612867565b602082019050919050565b600060208201905081810360008301526128cc81612890565b9050919050565b7f4e6f207269646572730000000000000000000000000000000000000000000000600082015250565b6000612909600983611dc0565b9150612914826128d3565b602082019050919050565b60006020820190508181036000830152612938816128fc565b9050919050565b7f4e487b7100000000000000000000000000000000000000000000000000000000600052601260045260246000fd5b600061297982611aa0565b915061298483611aa0565b9250826129945761299361293f565b5b828204905092915050565b7f4e487b7100000000000000000000000000000000000000000000000000000000600052603260045260246000fd5b7f5269646572206465706f73697420746f6f206c6f770000000000000000000000600082015250565b6000612a04601583611dc0565b9150612a0f826129ce565b602082019050919050565b60006020820190508181036000830152612a33816129f7565b9050919050565b6000612a4582611aa0565b9150612a5083611aa0565b9250828203905081811115612a6857612a67612291565b5b92915050565b6000604082019050612a836000830185611c9c565b612a906020830184611c9c565b9392505050565b7f4e6f742061207269646572000000000000000000000000000000000000000000600082015250565b6000612acd600b83611dc0565b9150612ad882612a97565b602082019050919050565b60006020820190508181036000830152612afc81612ac0565b9050919050565b7f4e6f206465706f73697400000000000000000000000000000000000000000000600082015250565b6000612b39600a83611dc0565b9150612b4482612b03565b602082019050919050565b60006020820190508181036000830152612b6881612b2c565b9050919050565b7f4e487b7100000000000000000000000000000000000000000000000000000000600052603160045260246000fdfea2646970667358221220692572682e8af75e7d79986651551523043c378d6efc3e0409fc4aed2089380664736f6c63430008140033",
  "linkReferences": {},
  "deployedLinkReferences": {}
}